{
  "_format": "hh-sol-artifact-1",
  "contractName": "CertificateRegistry",
  "sourceName": "contracts/CertificateRegistry.sol",
  "abi": [
    {
      "anonymous": false,
      "inputs": [
        {
          "indexed": true,
          "internalType": "uint256",
          "name": "certId",
          "type": "uint256"
        },
        {
          "indexed": false,
          "internalType": "bytes32",
          "name": "certHash",
          "type": "bytes32"
        },
        {
          "indexed": true,
          "internalType": "address",
          "name": "issuer",
          "type": "address"
        },
        {
          "indexed": true,
          "internalType": "address",
          "name": "recipient",
          "type": "address"
        },
        {
          "indexed": false,
          "internalType": "string",
          "name": "metadataURI",
          "type": "string"
        }
      ],
      "name": "CertificateIssued",
      "type": "event"
    },
    {
      "anonymous": false,
      "inputs": [
        {
          "indexed": true,
          "internalType": "uint256",
          "name": "certId",
          "type": "uint256"
        }
      ],
      "name": "CertificateRevoked",
      "type": "event"
    },
    {
      "anonymous": false,
      "inputs": [
        {
          "indexed": true,
          "internalType": "address",
          "name": "previousOwner",
          "type": "address"
        },
        {
          "indexed": true,
          "internalType": "address",
          "name": "newOwner",
          "type": "address"
        }
      ],
      "name": "OwnershipTransferred",
      "type": "event"
    },
    {
      "inputs": [
        {
          "internalType": "uint256",
          "name": "",
          "type": "uint256"
        }
      ],
      "name": "certificates",
      "outputs": [
        {
          "internalType": "bytes32",
          "name": "certHash",
          "type": "bytes32"
        },
        {
          "internalType": "string",
          "name": "metadataURI",
          "type": "string"
        },
        {
          "internalType": "address",
          "name": "issuer",
          "type": "address"
        },
        {
          "internalType": "address",
          "name": "recipient",
          "type": "address"
        },
        {
          "internalType": "bool",
          "name": "revoked",
          "type": "bool"
        },
        {
          "internalType": "bool",
          "name": "exists",
          "type": "bool"
        }
      ],
      "stateMutability": "view",
      "type": "function"
    },
    {
      "inputs": [
        {
          "internalType": "uint256",
          "name": "certId",
          "type": "uint256"
        },
        {
          "internalType": "bytes32",
          "name": "certHash",
          "type": "bytes32"
        },
        {
          "internalType": "string",
          "name": "metadataURI",
          "type": "string"
        },
        {
          "internalType": "address",
          "name": "recipient",
          "type": "address"
        }
      ],
      "name": "issueCertificate",
      "outputs": [
        {
          "internalType": "uint256",
          "name": "",
          "type": "uint256"
        }
      ],
      "stateMutability": "nonpayable",
      "type": "function"
    },
    {
      "inputs": [
        {
          "internalType": "uint256[]",
          "name": "certIds",
          "type": "uint256[]"
        },
        {
          "internalType": "bytes32[]",
          "name": "certHashes",
          "type": "bytes32[]"
        },
        {
          "internalType": "string[]",
          "name": "metadataURIs",
          "type": "string[]"
        },
        {
          "internalType": "address[]",
          "name": "recipients",
          "type": "address[]"
        }
      ],
      "name": "issueCertificates",
      "outputs": [
        {
          "internalType": "uint256[]",
          "name": "",
          "type": "uint256[]"
        }
      ],
      "stateMutability": "nonpayable",
      "type": "function"
    },
    {
      "inputs": [],
      "name": "owner",
      "outputs": [
        {
          "internalType": "address",
          "name": "",
          "type": "address"
        }
      ],
      "stateMutability": "view",
      "type": "function"
    },
    {
      "inputs": [],
      "name": "renounceOwnership",
      "outputs": [],
      "stateMutability": "nonpayable",
      "type": "function"
    },
    {
      "inputs": [
        {
          "internalType": "uint256",
          "name": "certId",
          "type": "uint256"
        }
      ],
      "name": "revokeCertificate",
      "outputs": [],
      "stateMutability": "nonpayable",
      "type": "function"
    },
    {
      "inputs": [
        {
          "internalType": "address",
          "name": "newOwner",
          "type": "address"
        }
      ],
      "name": "transferOwnership",
      "outputs": [],
      "stateMutability": "nonpayable",
      "type": "function"
    },
    {
      "inputs": [
        {
          "internalType": "uint256",
          "name": "certId",
          "type": "uint256"
        },
        {
          "internalType": "bytes32",
          "name": "certHash",
          "type": "bytes32"
        }
      ],
      "name": "verifyCertificate",
      "outputs": [
        {
          "internalType": "bool",
          "name": "matched",
          "type": "bool"
        },
        {
          "internalType": "string",
          "name": "metadataURI",
          "type": "string"
        },
        {
          "internalType": "address",
          "name": "recipient",
          "type": "address"
        },
        {
          "internalType": "bool",
          "name": "revoked",
          "type": "bool"
        }
      ],
      "stateMutability": "view",
      "type": "function"
    }
  ],
  "bytecode": "0x608060405234801561001057600080fd5b5061002d61002261003260201b60201c565b61003a60201b60201c565b6100fe565b600033905090565b60008060009054906101000a900473ffffffffffffffffffffffffffffffffffffffff169050816000806101000a81548173ffffffffffffffffffffffffffffffffffffffff021916908373ffffffffffffffffffffffffffffffffffffffff1602179055508173ffffffffffffffffffffffffffffffffffffffff168173ffffffffffffffffffffffffffffffffffffffff167f8be0079c531659141344cd1fd0a4f28419497f9722a3daafe3b4186f6b6457e060405160405180910390a35050565b61207f806200010e6000396000f3fe608060405234801561001057600080fd5b50600436106100885760003560e01c80638f713bb31161005b5780638f713bb314610106578063ae41c26914610136578063c3b451a214610166578063f2fde38b1461019957610088565b806306f5497e1461008d578063663b3e22146100a9578063715018a6146100de5780638da5cb5b146100e8575b600080fd5b6100a760048036038101906100a29190610dd1565b6101b5565b005b6100c360048036038101906100be9190610dd1565b6102e2565b6040516100d596959493929190610f03565b60405180910390f35b6100e6610400565b005b6100f0610414565b6040516100fd9190610f6b565b60405180910390f35b610120600480360381019061011b9190611442565b61043d565b60405161012d91906115d7565b60405180910390f35b610150600480360381019061014b91906115f9565b6105cf565b60405161015d919061168b565b60405180910390f35b610180600480360381019061017b91906116a6565b6105ef565b60405161019094939291906116e6565b60405180910390f35b6101b360048036038101906101ae9190611732565b61085b565b005b6101bd6108de565b6001600082815260200190815260200160002060030160159054906101000a900460ff16610220576040517f08c379a0000000000000000000000000000000000000000000000000000000008152600401610217906117ab565b60405180910390fd5b6001600082815260200190815260200160002060030160149054906101000a900460ff1615610284576040517f08c379a000000000000000000000000000000000000000000000000000000000815260040161027b90611817565b60405180910390fd5b600180600083815260200190815260200160002060030160146101000a81548160ff021916908315150217905550807fefa6c5f47ac2523bb4db18032377bf7fdce0fa9d86eddcae1ca9bba38be615d760405160405180910390a250565b600160205280600052604060002060009150905080600001549080600101805461030b90611866565b80601f016020809104026020016040519081016040528092919081815260200182805461033790611866565b80156103845780601f1061035957610100808354040283529160200191610384565b820191906000526020600020905b81548152906001019060200180831161036757829003601f168201915b5050505050908060020160009054906101000a900473ffffffffffffffffffffffffffffffffffffffff16908060030160009054906101000a900473ffffffffffffffffffffffffffffffffffffffff16908060030160149054906101000a900460ff16908060030160159054906101000a900460ff16905086565b6104086108de565b610412600061095c565b565b60008060009054906101000a900473ffffffffffffffffffffffffffffffffffffffff16905090565b60606104476108de565b60008551905060008111610490576040517f08c379a0000000000000000000000000000000000000000000000000000000008152600401610487906118e3565b60405180910390fd5b60328111156104d4576040517f08c379a00000000000000000000000000000000000000000000000000000000081526004016104cb9061194f565b60405180910390fd5b8085511480156104e45750808451145b80156104f05750808351145b61052f576040517f08c379a0000000000000000000000000000000000000000000000000000000008152600401610526906119bb565b60405180910390fd5b60005b818110156105c2576105ae8782815181106105505761054f6119db565b5b602002602001015187838151811061056b5761056a6119db565b5b6020026020010151878481518110610586576105856119db565b5b60200260200101518785815181106105a1576105a06119db565b5b6020026020010151610a20565b5080806105ba90611a39565b915050610532565b5085915050949350505050565b60006105d96108de565b6105e585858585610a20565b9050949350505050565b600060606000806001600087815260200190815260200160002060030160159054906101000a900460ff16610659576040517f08c379a000000000000000000000000000000000000000000000000000000000815260040161065090611acd565b60405180910390fd5b6000600160008881526020019081526020016000206040518060c00160405290816000820154815260200160018201805461069390611866565b80601f01602080910402602001604051908101604052809291908181526020018280546106bf90611866565b801561070c5780601f106106e15761010080835404028352916020019161070c565b820191906000526020600020905b8154815290600101906020018083116106ef57829003601f168201915b505050505081526020016002820160009054906101000a900473ffffffffffffffffffffffffffffffffffffffff1673ffffffffffffffffffffffffffffffffffffffff1673ffffffffffffffffffffffffffffffffffffffff1681526020016003820160009054906101000a900473ffffffffffffffffffffffffffffffffffffffff1673ffffffffffffffffffffffffffffffffffffffff1673ffffffffffffffffffffffffffffffffffffffff1681526020016003820160149054906101000a900460ff161515151581526020016003820160159054906101000a900460ff1615151515815250509050858160000151148061080d57506000801b86145b15610831576001816020015182606001518360800151945094509450945050610852565b60008060006040518060200160405280600081525091909450945094509450505b92959194509250565b6108636108de565b600073ffffffffffffffffffffffffffffffffffffffff168173ffffffffffffffffffffffffffffffffffffffff16036108d2576040517f08c379a00000000000000000000000000000000000000000000000000000000081526004016108c990611b5f565b60405180910390fd5b6108db8161095c565b50565b6108e6610d7f565b73ffffffffffffffffffffffffffffffffffffffff16610904610414565b73ffffffffffffffffffffffffffffffffffffffff161461095a576040517f08c379a000000000000000000000000000000000000000000000000000000000815260040161095190611bcb565b60405180910390fd5b565b60008060009054906101000a900473ffffffffffffffffffffffffffffffffffffffff169050816000806101000a81548173ffffffffffffffffffffffffffffffffffffffff021916908373ffffffffffffffffffffffffffffffffffffffff1602179055508173ffffffffffffffffffffffffffffffffffffffff168173ffffffffffffffffffffffffffffffffffffffff167f8be0079c531659141344cd1fd0a4f28419497f9722a3daafe3b4186f6b6457e060405160405180910390a35050565b60006001600086815260200190815260200160002060030160159054906101000a900460ff161580610a7257506001600086815260200190815260200160002060030160149054906101000a900460ff165b610ab1576040517f08c379a0000000000000000000000000000000000000000000000000000000008152600401610aa890611c37565b60405180910390fd5b600073ffffffffffffffffffffffffffffffffffffffff168273ffffffffffffffffffffffffffffffffffffffff1603610b20576040517f08c379a0000000000000000000000000000000000000000000000000000000008152600401610b1790611ca3565b60405180910390fd5b6000801b8403610b65576040517f08c379a0000000000000000000000000000000000000000000000000000000008152600401610b5c90611d0f565b60405180910390fd5b6000835111610ba9576040517f08c379a0000000000000000000000000000000000000000000000000000000008152600401610ba090611d7b565b60405180910390fd5b6040518060c001604052808581526020018481526020013373ffffffffffffffffffffffffffffffffffffffff1681526020018373ffffffffffffffffffffffffffffffffffffffff1681526020016000151581526020016001151581525060016000878152602001908152602001600020600082015181600001556020820151816001019081610c3a9190611f47565b5060408201518160020160006101000a81548173ffffffffffffffffffffffffffffffffffffffff021916908373ffffffffffffffffffffffffffffffffffffffff16021790555060608201518160030160006101000a81548173ffffffffffffffffffffffffffffffffffffffff021916908373ffffffffffffffffffffffffffffffffffffffff16021790555060808201518160030160146101000a81548160ff02191690831515021790555060a08201518160030160156101000a81548160ff0219169083151502179055509050508173ffffffffffffffffffffffffffffffffffffffff163373ffffffffffffffffffffffffffffffffffffffff16867f8aee6914c0d807a8afab7c6cf1425249a798e4533fbc5ded97f8e52164f002908787604051610d6c929190612019565b60405180910390a4849050949350505050565b600033905090565b6000604051905090565b600080fd5b600080fd5b6000819050919050565b610dae81610d9b565b8114610db957600080fd5b50565b600081359050610dcb81610da5565b92915050565b600060208284031215610de757610de6610d91565b5b6000610df584828501610dbc565b91505092915050565b6000819050919050565b610e1181610dfe565b82525050565b600081519050919050565b600082825260208201905092915050565b60005b83811015610e51578082015181840152602081019050610e36565b60008484015250505050565b6000601f19601f8301169050919050565b6000610e7982610e17565b610e838185610e22565b9350610e93818560208601610e33565b610e9c81610e5d565b840191505092915050565b600073ffffffffffffffffffffffffffffffffffffffff82169050919050565b6000610ed282610ea7565b9050919050565b610ee281610ec7565b82525050565b60008115159050919050565b610efd81610ee8565b82525050565b600060c082019050610f186000830189610e08565b8181036020830152610f2a8188610e6e565b9050610f396040830187610ed9565b610f466060830186610ed9565b610f536080830185610ef4565b610f6060a0830184610ef4565b979650505050505050565b6000602082019050610f806000830184610ed9565b92915050565b600080fd5b7f4e487b7100000000000000000000000000000000000000000000000000000000600052604160045260246000fd5b610fc382610e5d565b810181811067ffffffffffffffff82111715610fe257610fe1610f8b565b5b80604052505050565b6000610ff5610d87565b90506110018282610fba565b919050565b600067ffffffffffffffff82111561102157611020610f8b565b5b602082029050602081019050919050565b600080fd5b600061104a61104584611006565b610feb565b9050808382526020820190506020840283018581111561106d5761106c611032565b5b835b8181101561109657806110828882610dbc565b84526020840193505060208101905061106f565b5050509392505050565b600082601f8301126110b5576110b4610f86565b5b81356110c5848260208601611037565b91505092915050565b600067ffffffffffffffff8211156110e9576110e8610f8b565b5b602082029050602081019050919050565b61110381610dfe565b811461110e57600080fd5b50565b600081359050611120816110fa565b92915050565b6000611139611134846110ce565b610feb565b9050808382526020820190506020840283018581111561115c5761115b611032565b5b835b8181101561118557806111718882611111565b84526020840193505060208101905061115e565b5050509392505050565b600082601f8301126111a4576111a3610f86565b5b81356111b4848260208601611126565b91505092915050565b600067ffffffffffffffff8211156111d8576111d7610f8b565b5b602082029050602081019050919050565b600080fd5b600067ffffffffffffffff82111561120957611208610f8b565b5b61121282610e5d565b9050602081019050919050565b82818337600083830152505050565b600061124161123c846111ee565b610feb565b90508281526020810184848401111561125d5761125c6111e9565b5b61126884828561121f565b509392505050565b600082601f83011261128557611284610f86565b5b813561129584826020860161122e565b91505092915050565b60006112b16112ac846111bd565b610feb565b905080838252602082019050602084028301858111156112d4576112d3611032565b5b835b8181101561131b57803567ffffffffffffffff8111156112f9576112f8610f86565b5b8086016113068982611270565b855260208501945050506020810190506112d6565b5050509392505050565b600082601f83011261133a57611339610f86565b5b813561134a84826020860161129e565b91505092915050565b600067ffffffffffffffff82111561136e5761136d610f8b565b5b602082029050602081019050919050565b61138881610ec7565b811461139357600080fd5b50565b6000813590506113a58161137f565b92915050565b60006113be6113b984611353565b610feb565b905080838252602082019050602084028301858111156113e1576113e0611032565b5b835b8181101561140a57806113f68882611396565b8452602084019350506020810190506113e3565b5050509392505050565b600082601f83011261142957611428610f86565b5b81356114398482602086016113ab565b91505092915050565b6000806000806080858703121561145c5761145b610d91565b5b600085013567ffffffffffffffff81111561147a57611479610d96565b5b611486878288016110a0565b945050602085013567ffffffffffffffff8111156114a7576114a6610d96565b5b6114b38782880161118f565b935050604085013567ffffffffffffffff8111156114d4576114d3610d96565b5b6114e087828801611325565b925050606085013567ffffffffffffffff81111561150157611500610d96565b5b61150d87828801611414565b91505092959194509250565b600081519050919050565b600082825260208201905092915050565b6000819050602082019050919050565b61154e81610d9b565b82525050565b60006115608383611545565b60208301905092915050565b6000602082019050919050565b600061158482611519565b61158e8185611524565b935061159983611535565b8060005b838110156115ca5781516115b18882611554565b97506115bc8361156c565b92505060018101905061159d565b5085935050505092915050565b600060208201905081810360008301526115f18184611579565b905092915050565b6000806000806080858703121561161357611612610d91565b5b600061162187828801610dbc565b945050602061163287828801611111565b935050604085013567ffffffffffffffff81111561165357611652610d96565b5b61165f87828801611270565b925050606061167087828801611396565b91505092959194509250565b61168581610d9b565b82525050565b60006020820190506116a0600083018461167c565b92915050565b600080604083850312156116bd576116bc610d91565b5b60006116cb85828601610dbc565b92505060206116dc85828601611111565b9150509250929050565b60006080820190506116fb6000830187610ef4565b818103602083015261170d8186610e6e565b905061171c6040830185610ed9565b6117296060830184610ef4565b95945050505050565b60006020828403121561174857611747610d91565b5b600061175684828501611396565b91505092915050565b7f436572746966696361746520646f6573206e6f74206578697374000000000000600082015250565b6000611795601a83610e22565b91506117a08261175f565b602082019050919050565b600060208201905081810360008301526117c481611788565b9050919050565b7f436572746966696361746520616c7265616479207265766f6b65640000000000600082015250565b6000611801601b83610e22565b915061180c826117cb565b602082019050919050565b60006020820190508181036000830152611830816117f4565b9050919050565b7f4e487b7100000000000000000000000000000000000000000000000000000000600052602260045260246000fd5b6000600282049050600182168061187e57607f821691505b60208210810361189157611890611837565b5b50919050565b7f4e6f206365727469666963617465732070726f76696465640000000000000000600082015250565b60006118cd601883610e22565b91506118d882611897565b602082019050919050565b600060208201905081810360008301526118fc816118c0565b9050919050565b7f546f6f206d616e79206365727469666963617465730000000000000000000000600082015250565b6000611939601583610e22565b915061194482611903565b602082019050919050565b600060208201905081810360008301526119688161192c565b9050919050565b7f4172726179206c656e677468206d69736d617463680000000000000000000000600082015250565b60006119a5601583610e22565b91506119b08261196f565b602082019050919050565b600060208201905081810360008301526119d481611998565b9050919050565b7f4e487b7100000000000000000000000000000000000000000000000000000000600052603260045260246000fd5b7f4e487b7100000000000000000000000000000000000000000000000000000000600052601160045260246000fd5b6000611a4482610d9b565b91507fffffffffffffffffffffffffffffffffffffffffffffffffffffffffffffffff8203611a7657611a75611a0a565b5b600182019050919050565b7f496e76616c696420636572746966696361746520494400000000000000000000600082015250565b6000611ab7601683610e22565b9150611ac282611a81565b602082019050919050565b60006020820190508181036000830152611ae681611aaa565b9050919050565b7f4f776e61626c653a206e6577206f776e657220697320746865207a65726f206160008201527f6464726573730000000000000000000000000000000000000000000000000000602082015250565b6000611b49602683610e22565b9150611b5482611aed565b604082019050919050565b60006020820190508181036000830152611b7881611b3c565b9050919050565b7f4f776e61626c653a2063616c6c6572206973206e6f7420746865206f776e6572600082015250565b6000611bb5602083610e22565b9150611bc082611b7f565b602082019050919050565b60006020820190508181036000830152611be481611ba8565b9050919050565b7f436572746966696361746520494420616c726561647920657869737473000000600082015250565b6000611c21601d83610e22565b9150611c2c82611beb565b602082019050919050565b60006020820190508181036000830152611c5081611c14565b9050919050565b7f496e76616c696420726563697069656e74000000000000000000000000000000600082015250565b6000611c8d601183610e22565b9150611c9882611c57565b602082019050919050565b60006020820190508181036000830152611cbc81611c80565b9050919050565b7f496e76616c696420636572746966696361746520686173680000000000000000600082015250565b6000611cf9601883610e22565b9150611d0482611cc3565b602082019050919050565b60006020820190508181036000830152611d2881611cec565b9050919050565b7f496e76616c6964206d6574616461746120555249000000000000000000000000600082015250565b6000611d65601483610e22565b9150611d7082611d2f565b602082019050919050565b60006020820190508181036000830152611d9481611d58565b9050919050565b60008190508160005260206000209050919050565b60006020601f8301049050919050565b600082821b905092915050565b600060088302611dfd7fffffffffffffffffffffffffffffffffffffffffffffffffffffffffffffffff82611dc0565b611e078683611dc0565b95508019841693508086168417925050509392505050565b6000819050919050565b6000611e44611e3f611e3a84610d9b565b611e1f565b610d9b565b9050919050565b6000819050919050565b611e5e83611e29565b611e72611e6a82611e4b565b848454611dcd565b825550505050565b600090565b611e87611e7a565b611e92818484611e55565b505050565b5b81811015611eb657611eab600082611e7f565b600181019050611e98565b5050565b601f821115611efb57611ecc81611d9b565b611ed584611db0565b81016020851015611ee4578190505b611ef8611ef085611db0565b830182611e97565b50505b505050565b600082821c905092915050565b6000611f1e60001984600802611f00565b1980831691505092915050565b6000611f378383611f0d565b9150826002028217905092915050565b611f5082610e17565b67ffffffffffffffff811115611f6957611f68610f8b565b5b611f738254611866565b611f7e828285611eba565b600060209050601f831160018114611fb15760008415611f9f578287015190505b611fa98582611f2b565b865550612011565b601f198416611fbf86611d9b565b60005b82811015611fe757848901518255600182019150602085019450602081019050611fc2565b868310156120045784890151612000601f891682611f0d565b8355505b6001600288020188555050505b505050505050565b600060408201905061202e6000830185610e08565b81810360208301526120408184610e6e565b9050939250505056fea2646970667358221220b39f21bef63d8d31dbbdbf9f187494b6fc90d68b1be2fc169084c6e3f37707fa64736f6c63430008140033",
  "linkReferences": {},
  "deployedLinkReferences": {}
}